:020000040800F2
:10000000000500200101000883120008A11100086A
:100010008112000835020008511500080000000098
:10002000000000000000000000000000871200082F
:10003000370200080000000085120008891200083D
:100040001B0100081B0100081B0100081B01000820
:100050001B0100081B0100081B0100081B01000810
:100060001B0100081B0100081B0100081B01000800
:100070001B0100081B0100081B0100081B010008F0
:100080001B0100081B0100081B0100081B010008E0
:100090001B0100081B0100081B0100081B010008D0
:1000A0001B0100081B0100081B0100081B010008C0
:1000B0001B0100081B010008DD1200081B010008DD
:1000C0001B0100081B0100081B0100081B010008A0
:1000D0001B010008451500081B0100081B01000852
:1000E0001B0100081B0100081B010008DFF80CD0F1
:1000F00000F08EF80048004719190008000500209C
:100100000648804706480047FEE7FEE7FEE7FEE7B1
:10011000FEE7FEE7FEE7FEE7FEE7FEE7DB1200088C
:10012000ED00000840EA01039B0703D009E008C97D
:10013000121F08C0042AFAD203E011F8013B00F8AC
:10014000013B521EF9D27047D2B201E000F8012BF8
:10015000491EFBD270470022F6E710B513460A4647
:1001600004461946FFF7F0FF204610BD96230022F3
:10017000114600F01FB830B50B4601460020202282
:10018000012409E021FA02F59D4205D303FA02F5A4
:10019000491B04FA02F52844151EA2F10102F1DC04
:1001A00030BD0029A8BF7047401C490008BF20F09F
:1001B0000100704710B4B0FA80FC00FA0CF050EA6D
:1001C000010404BF10BC704749B1CCF1200421FAEE
:1001D00004F411FA0CF118BF012121430843A3EBE9
:1001E0000C01CB1D4FEA00614FEA102042BF0020F6
:1001F00010BC704700EBC35010440029A4BF10BCD2
:100200007047401C490008BF20F0010010BC704737
:10021000064C074D06E0E06840F0010394E8070053
:1002200098471034AC42F6D3FFF764FF90190008EA
:10023000B0190008FEE770477047000010B590F84D
:1002400021100024022903D00421816301243DE010
:1002500001680A6822F00E020A6001680A6822F04A
:1002600001020A601A4A0168914201D1012121E08C
:10027000174A1432914201D110211BE0144A28324E
:10028000914201D1891515E0114A3C32914201D1C8
:1002900089140FE00E4A5032914202D14FF480315E
:1002A00008E00B4A6432914202D14FF4801101E020
:1002B0004FF08071064A083A5160012180F8211000
:1002C000002180F82010416B01B18847204610BD05
:1002D0000800024070B5044600F0FEF80546601CB8
:1002E00002D004480078044400F0F6F8401BA04215
:1002F000FAD370BD0C0000202DE9F84FDFF8B8915B
:10030000002409F1040A0AF1040B23460F270BF11C
:10031000040EC9E00125A5402A40AA427DD1674EBE
:10032000D1F804C0ACEB0608B44532D014DCBCF103
:10033000030F3AD009DCBCF1000F2AD0BCF1010F49
:100340001CD0BCF1020F31D11DE0BCF1110F17D050
:10035000BCF1120F2AD119E0B8F5881F19D006DCBC
:10036000B8F5803F15D0B8F5801F1FD111E0B8F562
:10037000001F0ED0B8F5041F18D10AE0CB6815E0B5
:10038000CB681B1D12E0CB6808330FE0CB680C3341
:100390000CE08B682BB1012B4FF0080303D04561B3
:1003A00004E0042302E0056100E00023FF2A01D8F5
:1003B000064601E000F104064FEA840501D9A5F1E3
:1003C0002005D6F8008007FA05FC28EA0C0803FA95
:1003D00005F548EA0508C6F800804D68ED0062D5CD
:1003E000374DAE6946F00106AE61AD6924F00306F3
:1003F00005F001050095334D06EB050CDCF80850BF
:10040000A607360F07FA06F825EA0805DFF8B880D0
:10041000404503D14FF0000817E044E0DFF8AC801E
:10042000404502D14FF001080FE0DFF8A4804045BD
:1004300002D14FF0020808E0DFF89880404502D171
:100440004FF0030801E04FF0040808FA06F848EA04
:100450000508CCF808804D68D9F80060ED034D46DA
:1004600001D5164300E096432E604D68DAF800602F
:10047000AD03554601D5164300E096432E604D6806
:10048000DBF80060ED025D4601D5164300E09643BF
:100490002E604D68DEF80060AD02754601D516434A
:1004A00000E096432E60641C0D682A46E5407FF408
:1004B00031AFBDE8F88F00000004014000001110CA
:1004C000001002400000014000080140000C014003
:1004D000001001400014014001488068704700008E
:1004E0000C00002002488168027811448160704746
:1004F0000C000020074810B5016841F010010160B0
:10050000032000F075F8002000F006F800F024F851
:10051000002010BD0020024070B50D4D04464FF480
:100520007A712878B1FBF0F00A490968B1FBF0F064
:1005300000F0ECFA48B9102C07D200222146501ED8
:1005400000F036F800206C6070BD012070BD000026
:100550000C000020180000200C4808B5816941F00B
:1005600001018161816901F001010091C16941F0DE
:100570008051C161C06900F080500090044841681A
:1005800021F0E06141F00071416008BD00100240BF
:1005900000000140002809DB00F01F02012191400A
:1005A0004009800000F1E020C0F800117047000011
:1005B000F0B40E4B1B680C46C3F30223C3F10705CE
:1005C000042D00D90425191D072901D2002300E0BC
:1005D000DB1E012606FA05F1491E214099409E4086
:1005E000761E16403143F0BC00F0C4BF0CED00E0B5
:1005F000064900F0070208684FF6FF03184040EA7A
:100600000220034A10430860704700000CED00E030
:100610000000FA052DE9F0470F46050061D0434E72
:10062000306800F00700B84209D2306820F00700B7
:1006300038433060306800F00700B84251D1286874
:100640003B4C810712D5400703D5606840F4E06059
:1006500060602878000703D5606840F460506060EF
:100660006068A96820F0F000084360602878C0073F
:1006700028D06868012810D02168022810D0890786
:1006800000292EDA616821F0030101436160FFF760
:1006900023FF804641F288390DE021688903EFE7A6
:1006A0008901EDE7FFF718FFA0EB0801494502D9E2
:1006B0000320BDE8F0876068696800F00C00B0EBCB
:1006C000810FEFD1306800F00700B8420BD93068D5
:1006D00020F0070038433060306800F00700B8426F
:1006E00001D00120E5E72878400705D56068E96872
:1006F00020F4E060084360602878000706D5606851
:10070000296920F4605040EAC100606000F038F8C8
:100710006168084AC1F30311515CC840064908608A
:1007200006480068FFF7F8FE0020C2E700200240FC
:100730000010024078190008180000201000002066
:100740000448054900684968044AC1F30221515C24
:10075000C8407047180000200010024088190008A7
:100760000448054900684968044AC1F3C221515C44
:10077000C840704718000020001002408819000887
:1007800012A185B00FC98DE80F0014A0144A0068AB
:1007900004905168134801F00C03042B10D0082B6F
:1007A0000ED1C1F38343C9031DF803000AD5516874
:1007B00004AAC1F34041515C0A4A5043B0FBF1F036
:1007C00005B0704708494843FAE7000002030405F2
:1007D000060708090A0B0C0D0E0F1010010200008D
:1007E0000010024000127A0000093D002DE9F84F88
:1007F000040070D02078C04DC00749D06868C0F3AD
:100800008100012807D06868C0F38100022809D15F
:100810006868C00306D52868800339D56068002859
:10082000E7D035E06068B0F5803F0BD010B1B0F58F
:10083000A02F11D0286820F480302860286820F488
:10084000802002E0286840F480302860606890B121
:10085000FFF742FE06460AE0286840F48020286040
:10086000F0E700BFFFF738FE801B642873D82868C4
:100870008003F7D50CE0FFF72FFE064605E000BF2A
:10088000FFF72AFE801B6428F0D828688003F7D47D
:1008900020789A4E80074FF001094FF0000839D5B3
:1008A000686810F00C0F07D06868C0F38100022858
:1008B00009D16868C00306D42868800714D5206968
:1008C000012808D110E02069B0B1C6F80090FFF708
:1008D00003FE074605E00AE1FFF7FEFDC01B022804
:1008E000C4D828688007F7D52868616920F0F80027
:1008F00040EAC10028600DE0C6F80080FFF7ECFD7B
:10090000074604E0FFF7E8FDC01B022823D828684B
:100910008007F7D4207800072CD57948A169D9B190
:10092000C0F80090FFF7D8FD074604E0FFF7D4FDBC
:10093000C01B02280FD8686A8007F7D571484FF4AA
:10094000FA510068B0FBF1F0009000BF0098411E22
:100950000091FAD20EE080E0C0F80080FFF7BCFD05
:10096000074604E0FFF7B8FDC01B022875D8686A87
:100970008007F7D42078400760D5E8690027C000D9
:1009800008D4E86940F08050E861E869012700F088
:10099000805000905C480168C90513D40168834603
:1009A00041F480710160FFF797FD824606E000BFC9
:1009B000FFF792FDA0EB0A0064284ED8DBF8000098
:1009C000C005F5D5E06801280AD008B1052813D084
:1009D000286A20F001002862286A20F0040002E062
:1009E000286A40F001002862E06841F2883B98B133
:1009F000FFF772FD82460BE0286A40F0040028628F
:100A0000EEE700BFFFF768FDA0EB0A0159455AD891
:100A1000286A8007F6D50CE0FFF75EFD824605E008
:100A2000FFF75AFDA0EB0A0159454CD8286A800708
:100A3000F6D41FB1E86920F08050E861E06988B31E
:100A40006968C1F38101022944D00228C6F8608098
:100A500004D0FFF741FD044638E034E0FFF73CFDE9
:100A6000074604E0FFF738FDC01B02282BD8286892
:100A70008001F7D4206AB0F5803F05D16868A1688D
:100A800020F4003008436860D4E90801084369682D
:100A900021F4741108436860C6F86090FFF71CFDEC
:100AA000044606E025E000BFFFF716FD001B022804
:100AB00009D828688001F7D51BE000BFFFF70CFDBF
:100AC000001B022802D90320BDE8F88F28688001A6
:100AD000F4D40EE00128F7D06868226A00F480316F
:100AE000914204D1616A00F47010884201D0012063
:100AF000EAE70020E8E70000001002400000424260
:100B000080044242180000200070004010B5401ED2
:100B1000B0F1807F01D3012010BD4FF0E02460616F
:100B20000F21601700F026FD0020A0610720206142
:100B3000002010BD7047704770B590F83C20012A26
:100B400026D0012480F83C40022280F83D20036832
:100B50005A689D6822F070060A6832435A600D4B4D
:100B600002689A4208D0B2F1804F05D00A4B9A42EF
:100B700002D00A4B9A4204D1496825F080031943F8
:100B8000916080F83D40002180F83C10084670BD1F
:100B9000022070BD002C014000040040000800400D
:100BA0002DE9F0410D46040003D094F83D0018B142
:100BB00008E00120BDE8F081002084F83C002046D8
:100BC00000F040F8022084F83D002068816844F27B
:100BD000070291438160211D206800F085FB226897
:100BE00090689169166A2B68AF69034340F203303D
:100BF000814341EA0721A868EF6908434FF6FC41A9
:100C00008843E96840EA0720014328692F6A000108
:100C100040EA0730084369686D6926F0220646EA13
:100C20000515294393602268906154F8460B0162D0
:100C3000012004F81F09E0752076E0762077A07582
:100C40000020B7E700B585B0002100910191029125
:100C500003910068114988421ED11148C16941F0D1
:100C60000401C161C16901F004010491816941F08D
:100C7000080181618069694600F008000490C02085
:100C800000900848FFF738FB002211461E20FFF7AE
:100C90008FFC1E20FFF77EFC05B000BD0008004061
:100CA00000100240000C014070B590F83E60044610
:100CB00090F83F5090F8423090F84320022021B144
:100CC00004290ED0012E1BD114E0012E18D1012BC6
:100CD00016D184F83E0084F84200012200212068E9
:100CE00020E0012D0CD1012A0AD184F83F0084F8BC
:100CF000430014E0012D03D1012B01D1012A01D0C1
:100D0000012070BD84F83E0084F83F0084F8420062
:100D100084F8430001220021206800F01BFB01221F
:100D20000421206800F016FB2068016841F00101F1
:100D30000160002070BD704770B50446006801690D
:100D40004FF00005C943890715D4C168C943890715
:100D500011D4E91E01610120207720688069800795
:100D6000204602D0FFF7E7FF04E000F098F82046A5
:100D700000F096F8257720680169C943490717D420
:100D8000C168C943490713D46FF00401016102200F
:100D900020772068806910F4407F204602D0FFF75A
:100DA000CAFF04E000F07BF8204600F079F82577D0
:100DB00020680169C943090716D4C168C9430907F6
:100DC00012D46FF008010161042020772068C06907
:100DD0008007204602D0FFF7AEFF04E000F05FF886
:100DE000204600F05DF8257720680169C943C906EF
:100DF00017D4C168C943C90613D46FF0100101614B
:100E0000082020772068C06910F4407F204602D077
:100E1000FFF791FF04E000F042F8204600F040F8B0
:100E2000257720680169C943C90708D1C168C9434A
:100E3000C90704D1891E0161204600F032F82068FC
:100E40000169C943090609D4C168C943090605D423
:100E50006FF0800101612046FFF76CFE2068016998
:100E6000C943490609D4C168C943490605D46FF08E
:100E700040010161204600F015F820680169C9436E
:100E800089060BD4C168C943890607D46FF02001D5
:100E900001612046BDE87040FFF74DBE70BD704750
:100EA000704770477047704770B502680446106815
:100EB000D168536910F00F0F52D003F0010501F40F
:100EC00090762E435FD0C20705D0CA0503D5E26BEA
:100ED00042F00102E263420705D5DA0703D0E26B74
:100EE00042F00202E263820705D5DA0703D0E26B23
:100EF00042F00402E263020707D501F020022A4310
:100F000003D0E26B42F00802E263E26B002A33D0C6
:100F1000800604D5880602D5204600F03EFA2068F7
:100F20004069E16BC0F38010090700D428B3204664
:100F300000F025FA2068416949061AD5416921F077
:100F400040014161606BA0B12D494163606BFFF7C7
:100F500075F9002810D0606B416BBDE87040084700
:100F6000830610D58B060ED52046BDE8704000F0F4
:100F700014BA2046FFF797FF70BD2046FFF793FF96
:100F80000020E06370BD03062BD50B0629D594F82D
:100F900039002128F6D1A068B0F5805F01D1206921
:100FA000B0B1206A411C2162216800784860E08C61
:100FB000401E0004000CE084E4D12068C16821F0E8
:100FC0008001C1602068C16841F04001C16070BD0E
:100FD000206A0088C0F308005060206A801C2062EC
:100FE000E5E74006F3D54806F1D5D168204621F063
:100FF0004001D160202184F8391000F0D0F870BD94
:101000006F13000870B5040004D094F8390000256F
:1010100010B106E0012070BD84F83850204600F081
:1010200023F8242084F839002068C16821F4005195
:10103000C160204600F0F8F92068016921F4904170
:1010400001612068416921F02A0141612068C1687D
:1010500041F40051C160E563202084F8390084F830
:101060003A00002070BD000030B585B00024009427
:101070000194029403940068184988422CD11848BE
:10108000816941F480418161816901F48041049169
:10109000816941F0040181618069124D00F0040012
:1010A00004904FF400700090022001900320039000
:1010B00069462846FFF720F92815CDE9000469465E
:1010C00028460294FFF718F9002211462520FFF761
:1010D0006FFA2520FFF75EFA05B030BD00380140F9
:1010E0000010024000080140704700002DE9F8435D
:1010F000044690F839001F4616460D4620284CD16C
:10110000C5B1BEB194F83800012846D0012084F85A
:1011100038004FF00008C4F83C80212084F83900E2
:10112000FFF7DAF9A6848146E684A068B0F5805F0F
:1011300003D004E00120BDE8F883206928B12E46E1
:101140005FF0000584F838800EE00026FAE7802181
:10115000204600F0C5F9A0B9AEB116F8010B216820
:101160004860E08C401EE084E08C4B464FF000026B
:1011700000970028EBD14FF04001204600F0B0F975
:1011800030B10320D7E735F8020BC0F30800E6E7DB
:10119000202084F839000020CDE70220CBE77047FB
:1011A000FEE700000D4808B5816941F0200181612A
:1011B000816901F020010091816941F004018161A0
:1011C000816901F004010091816941F008018161A8
:1011D000806900F00800009008BD00000010024087
:1011E00010B58CB024216846FEF7B5FF00241548E1
:1011F000099413490A94C0E900144FF6FF71C0E93D
:101200000241046184610120CDE90004CDE90204BA
:101210000494CDE90540079469460A480894FFF70D
:10122000BFFC08B1FFF708F8099409A905480A941A
:10123000FFF782FC002801D0FEF7FEFF0CB010BDC6
:1012400000080040200000200C4810B50A49016049
:101250004FF4E1314160002181600C22C160C0E99E
:1012600004128161C161FFF7CDFE002803D0BDE803
:101270001040FEF7E1BF10BD0038014068000020BB
:10128000FEE7704770477047FFF72CB930B58FB055
:1012900028216846FEF75FFF14210AA8FEF75BFFCE
:1012A00001210804CDE900100024029402250491D4
:1012B000CDE907504FF4E01009906846FFF796FA21
:1012C0000F20CDE90A056802CDE90C4002210AA8E9
:1012D0000E94FFF79FF90FB030BD70470148FFF73C
:1012E0002BBD000020000020F0B50268164B174C03
:1012F000174D4FF08047984205D0B84203D0A04226
:1013000001D0A84203D122F070064A6832439842C5
:1013100005D0B84203D0A04201D0A84203D122F4A4
:101320004074CA6822434C6922F080022243026062
:101330008A68C2620A688262984201D109690163BF
:1013400001214161F0BD0000002C0140000400407B
:101350000008004010B501F01F030121046A994004
:101360008C430462016A9A401143016210BD10B5BA
:10137000406A0021C185C184FFF795FD10BD016859
:10138000CA6822F49072CA6001684A6922F00102B8
:101390004A61202180F83A10704710B590F83A1051
:1013A000222901D0022010BD82684FF480539A4256
:1013B00001D1016921B1816A9A421BD04AB10AE088
:1013C0000268816A5268C2F308020A80816A891C35
:1013D00008E0026972B10268526802F07F020A7086
:1013E000816A491C8162C18D491E0904090CC185AD
:1013F00003D016E002685268F1E70168CA6822F07B
:101400002002CA600168CA6822F48072CA6001685A
:101410004A6922F001024A61202180F83A10FFF760
:1014200063FE002010BD000070B50446006801692D
:10143000E26821F44051114301612169A068084329
:10144000616908432168CA6841F20C639A43024308
:10145000CA6020684169A26921F440711143416169
:101460001E492068884202D1FFF77AF901E0FFF7B0
:1014700067F900EBC00101EB001260686421800095
:10148000B2FBF0F3B3FBF1F36FF018067343B2FB5A
:10149000F0F5B2FBF0F605EB8305322303EB0515FF
:1014A000B5FBF1F5B6FBF1F605F0F00505EB061519
:1014B000B2FBF0F6B2FBF0F0B0FBF1F06FF0180207
:1014C000504306EB800003EB0010B0FBF1F0216805
:1014D00000F00F002844886070BD00000038014013
:1014E0002DE9F041984617460E460446069D1DE03C
:1014F000681C1BD02DB1FEF7EFFFA0EB0800A8423F
:1015000014D92068C16821F4D071C1602068416994
:1015100021F001014161202084F8390084F83A006B
:10152000002084F838000320BDE8F08120680068BE
:1015300036EA000004D00020B842D9D00020F3E7FA
:101540000120F9E70148FFF7AFBC00006800002068
:10155000FEE700000FB4054B10B503A9044A02983A
:1015600000F028F810BC5DF814FB00000119000819
:101570001C0000200907090E002804DB00F1E02010
:1015800080F80014704700F00F0000F1E02080F8B0
:10159000141D704702E008C8121F08C1002AFAD1C2
:1015A00070477047002001E001C1121F002AFBD1E3
:1015B000704700002DE9FF4F89B09B460446002587
:1015C00006E025280BD05A460B999047641C6D1CE9
:1015D00020780028F5D10DB02846BDE8F08F00270F
:1015E000B8460122474900E0074314F8013F203B79
:1015F00002FA03F00842F7D120782E2819D114F806
:10160000010F47F004072A280ED06FF02F02207830
:10161000A0F1300109290CD808EB880102EB410147
:1016200000EB0108641CF2E70A98641C50F8048B74
:101630000A9020780028CED0642808D0692806D0E7
:1016400075281ED05A460B9990476D1C58E00A9990
:101650004FF00A0901C90A91002802DA40422D21FF
:1016600002E0390504D52B218DF82010012103E07B
:10167000F90704D02021F7E78A4608AE0DE00021E3
:10168000FAE70A994FF00A0901C90A91F7E74946B2
:10169000FEF771FD303106F8011D0028F7D1ADEBE2
:1016A000060000F12009780701D44FF00108C84571
:1016B00002DDA8EB090000E000208046002706E0DC
:1016C00008A85A46C05D0B9990476D1C7F1C574572
:1016D000F6DB04E030205A460B9990476D1CB8F1B8
:1016E0000001A8F10108F5DC05E016F8010B5A46E7
:1016F0000B9990476D1CB9F10001A9F10109F4DCC7
:10170000641C65E7092801000FB470B5044605980C
:10171000406A41F2883180B20122ADF8600088420F
:101720000AD88DF85D209DF85C30012B04D1BDF8FE
:101730005E305B1CADF85E30A0F56C45773D002354
:101740008D420BD88DF85C209DF85D10012907D1E2
:10175000BDF85E10491EADF85E1001E08DF85C30FA
:10176000A0F5985189394EF67642914201D88DF80C
:101770005D30BDF95E103D22C1EB01410844199076
:1017800005A92046FEF7CEFC9DF8510004F83D0F58
:101790009DF8520060709DF85300A0709DF85400B1
:1017A000E0709DF8550020719DF8560060719DF81D
:1017B0005700A0719DF85800E0719DF85900207203
:1017C0009DF85A00607217981899199A0B3484E89A
:1017D000070070BC5DF814FB10B53C211048FFF702
:1017E00063FA3D220E490F48FEF79CFC0C4810F8A6
:1017F0003D2F0C4901F83D2F42784A7082788A705B
:10180000C278CA7002790A7142794A7182798A7102
:10181000C279CA71027A0A72407A487210BD000019
:1018200020000020A800002010B5BCB03D223349A4
:1018300012A8FEF777FC314C14F83D0F8DF88500A7
:1018400060788DF88600A0788DF88700E0788DF8B4
:10185000880020798DF8890060798DF88A00A07958
:101860008DF88B00E0798DF88C00207A8DF88D0052
:10187000607A8DF88E00D4F80B00D4F80F10D4F8ED
:10188000132024AB83E80700482215A96846FEF719
:1018900049FC12A890E80E0027A8FFF735FF27A9FA
:1018A0003D221648FEF73EFC9DF8D90020709DF8B9
:1018B000DA0060709DF8DB00A0709DF8DC00E0703D
:1018C0009DF8DD0020719DF8DE0060719DF8DF005D
:1018D000A0719DF8E000E0719DF8E10020729DF894
:1018E000E200607239AB93E80700C4F80B00C4F85B
:1018F0000F10C4F813203CB010BD0000A800002059
:1019000013B54FF6FF73012269460248FFF7EEFB5D
:1019100000981CBD68000020FEF7ECFDFFF7B6FC48
:10192000FFF740FCFFF75CFCFFF78EFCFFF754FF6E
:101930000C4E0D4C0D4F35682868C0F30010FEF7B3
:1019400015FC2060686AFEF711FC6060A06008A0CA
:10195000396DFFF7FFFDFFF767FF0A20FEF7BAFCBE
:10196000E9E700002000002000000020A80000207F
:10197000413D25640D0A0000000000000000000049
:101980000102030406070809000000000102030425
:10199000B019000800000020200000009415000885
:1019A000D019000820000020E0040000A415000861
:1019B0000000000000000000000000000100000026
:1019C00010000000000000000024F40000000000EF
:04000005080000ED02
:00000001FF
